S0180000414D495420494E544552464143494E472E7372656397
S11300000C942A000C9447000C9447000C9447006D
S11300100C9447000C9447000C9447000C94470040
S11300200C9447000C9447000C9447000C94470030
S11300300C9447000C9447000C9447000C94470020
S11300400C9447000C9447000C9447000C94470010
S11300500C94470011241FBECFE5D8E0DEBFCDBF0E
S113006010E0A0E6B0E0E2E2F4E002C005900D92F8
S1130070A036B107D9F720E0A0E6B0E001C01D9298
S1130080A036B207E1F70E943D010C940F020C94D4
S11300900000442319F04130C9F10895813091F0F2
S11300A028F08230D9F0833029F108952AB381E011
S11300B090E002C0880F991F6A95E2F78095822329
S11300C08ABB089527B381E090E002C0880F991F8E
S11300D06A95E2F78095822387BB089524B381E073
S11300E090E002C0880F991F6A95E2F780958223F9
S11300F084BB089521B381E090E002C0880F991F6A
S11301006A95E2F78095822381BB0895813089F056
S113011028F08230C9F0833011F108952AB381E0C8
S113012090E002C0880F991F6A95E2F7822B8ABB80
S1130130089527B381E090E002C0880F991F6A9563
S1130140E2F7822B87BB089524B381E090E002C0DC
S1130150880F991F6A95E2F7822B84BB089521B317
S113016081E090E002C0880F991F6A95E2F7822B24
S113017081BB0895442319F04130C9F108958130B9
S113018091F028F08230D9F0833029F108952BB30F
S113019081E090E002C0880F991F6A95E2F780958C
S11301A082238BBB089528B381E090E002C0880FBE
S11301B0991F6A95E2F78095822388BB089525B339
S11301C081E090E002C0880F991F6A95E2F780955C
S11301D0822385BB089522B381E090E002C0880F9A
S11301E0991F6A95E2F78095822382BB0895813036
S11301F089F028F08230C9F0833011F108952BB3CF
S113020081E090E002C0880F991F6A95E2F7822B83
S11302108BBB089528B381E090E002C0880F991F3A
S11302206A95E2F7822B88BB089525B381E090E0BC
S113023002C0880F991F6A95E2F7822B85BB089547
S113024022B381E090E002C0880F991F6A95E2F71B
S1130250822B82BB089541E062E082E00E94490063
S1130260089541E062E082E00E94BA00089540E00F
S113027062E082E00E94BA0008950E942B010E946D
S113028003020E94F40180E00E94FF010E940B021D
S1130290823601F1833609F456C0813609F0A1C0D3
S11302A00E9431012FEF81EE94E021508040904074
S11302B0E1F700C000000E94370181E60E94FB01C3
S11302C02FEF81EE94E0215080409040E1F700C090
S11302D00000DCCF0E9431012FEF81EE94E0215029
S11302E080409040E1F700C000000E9437012FEFEA
S11302F081EE94E0215080409040E1F700C000007E
S11303000E9431012FEF81EE94E021508040904013
S1130310E1F700C000000E9437012FEF81EE94E066
S1130320215080409040E1F700C0000082E60E9426
S1130330FB012FEF81EE94E0215080409040E1F7E3
S113034000C00000A3CF0E9431012FEF81EE94E0A2
S1130350215080409040E1F700C000000E94370126
S11303602FEF81EE94E0215080409040E1F700C0EF
S113037000000E9431012FEF81EE94E02150804073
S11303809040E1F700C000000E9437012FEF81EE9A
S113039094E0215080409040E1F700C000000E94AA
S11303A031012FEF81EE94E0215080409040E1F73D
S11303B000C000000E9437012FEF81EE94E021502D
S11303C080409040E1F700C0000083E60E94FB01FA
S11303D02FEF81EE94E0215080409040E1F700C07F
S11303E000000E94370152CFBD9ABE98BF9ABC9AB2
S11303F083E58DB908958FB9779BFECF0895811158
S113040001C0C498089588E18AB986E880BD87E66A
S113041089B910BC08955F9BFECF8CB10895F89400
S1050420FFCF08
S9030000FC
