S00D0000736C6176652E73726563FC
S11300000C942A000C9434000C9434000C943400A6
S11300100C9434000C9434000C9434000C9434008C
S11300200C9434000C9434000C9434000C9434007C
S11300300C9434000C9434000C9434000C9434006C
S11300400C9434000C9434000C9434000C9434005C
S11300500C94340011241FBECFE5D8E0DEBFCDBF21
S11300600E943C010C949B010C940000442319F061
S11300704130C9F10895813091F028F08230D9F0EF
S1130080833029F108952AB381E090E002C0880FFB
S1130090991F6A95E2F7809582238ABB089527B356
S11300A081E090E002C0880F991F6A95E2F780957D
S11300B0822387BB089524B381E090E002C0880FB7
S11300C0991F6A95E2F78095822384BB089521B332
S11300D081E090E002C0880F991F6A95E2F780954D
S11300E0822381BB0895813089F028F08230C9F0E1
S11300F0833011F108952AB381E090E002C0880FA3
S1130100991F6A95E2F7822B8ABB089527B381E091
S113011090E002C0880F991F6A95E2F7822B87BB93
S1130120089524B381E090E002C0880F991F6A9576
S1130130E2F7822B84BB089521B381E090E002C0F2
S1130140880F991F6A95E2F7822B81BB0895442397
S113015019F04130C9F10895813091F028F08230CE
S1130160D9F0833029F108952BB381E090E002C0E7
S1130170880F991F6A95E2F7809582238BBB0895B7
S113018028B381E090E002C0880F991F6A95E2F7D6
S11301908095822388BB089525B381E090E002C056
S11301A0880F991F6A95E2F78095822385BB08958D
S11301B022B381E090E002C0880F991F6A95E2F7AC
S11301C08095822382BB0895813089F028F08230A3
S11301D0C9F0833011F108952BB381E090E002C09F
S11301E0880F991F6A95E2F7822B8BBB089528B379
S11301F081E090E002C0880F991F6A95E2F7822B94
S113020088BB089525B381E090E002C0880F991F50
S11302106A95E2F7822B85BB089522B381E090E0D2
S113022002C0880F991F6A95E2F7822B82BB08955A
S113023041E062E082E00E943600089541E062E01D
S113024082E00E94A700089540E062E082E00E94FC
S1130250A700089541E063E083E00E94360008951A
S113026041E063E083E00E94A700089540E063E07A
S113027083E00E94A70008950E9490010E94180143
S11302800E942A010E949701823699F08336F9F080
S1130290813609F040C00E941E012FEF81EE94E0E8
S11302A0215080409040E1F700C000000E942401EA
S11302B0E9CF0E9430012FEF81EE94E0215080407D
S11302C09040E1F700C000000E943601DBCF0E949D
S11302D01E012FEF81EE94E0215080409040E1F721
S11302E000C000000E9424012FEF81EE94E0215011
S11302F080409040E1F700C000000E9430012FEFE1
S113030081EE94E0215080409040E1F700C000006D
S11303100E943601B7CF0E9424010E943601B2CF59
S1130320BD98BE9ABF98BC9883E48DB90895779B15
S10D0330FECF8FB10895F894FFCFBB
S9030000FC
